{
  "contractName": "PayStudent",
  "abi": [
    {
      "constant": true,
      "inputs": [],
      "name": "client",
      "outputs": [
        {
          "name": "",
          "type": "address"
        }
      ],
      "payable": false,
      "stateMutability": "view",
      "type": "function",
      "signature": "0x109e94cf"
    },
    {
      "constant": true,
      "inputs": [],
      "name": "tasker",
      "outputs": [
        {
          "name": "",
          "type": "address"
        }
      ],
      "payable": false,
      "stateMutability": "view",
      "type": "function",
      "signature": "0x82faef25"
    },
    {
      "constant": true,
      "inputs": [],
      "name": "payAmount",
      "outputs": [
        {
          "name": "",
          "type": "uint256"
        }
      ],
      "payable": false,
      "stateMutability": "view",
      "type": "function",
      "signature": "0xc8705544"
    },
    {
      "constant": true,
      "inputs": [],
      "name": "deployer",
      "outputs": [
        {
          "name": "",
          "type": "address"
        }
      ],
      "payable": false,
      "stateMutability": "view",
      "type": "function",
      "signature": "0xd5f39488"
    },
    {
      "inputs": [
        {
          "name": "_client",
          "type": "address"
        },
        {
          "name": "_tasker",
          "type": "address"
        }
      ],
      "payable": false,
      "stateMutability": "nonpayable",
      "type": "constructor",
      "signature": "constructor"
    },
    {
      "payable": true,
      "stateMutability": "payable",
      "type": "fallback"
    },
    {
      "constant": false,
      "inputs": [],
      "name": "sendPayAmountToTasker",
      "outputs": [],
      "payable": false,
      "stateMutability": "nonpayable",
      "type": "function",
      "signature": "0xe239aa04"
    }
  ],
  "bytecode": "0x608060405234801561001057600080fd5b506040516040806105d98339810180604052604081101561003057600080fd5b810190808051906020019092919080519060200190929190505050336000806101000a81548173ffffffffffffffffffffffffffffffffffffffff021916908373ffffffffffffffffffffffffffffffffffffffff16021790555081600160006101000a81548173ffffffffffffffffffffffffffffffffffffffff021916908373ffffffffffffffffffffffffffffffffffffffff16021790555080600260006101000a81548173ffffffffffffffffffffffffffffffffffffffff021916908373ffffffffffffffffffffffffffffffffffffffff160217905550600060038190555050506104b3806101266000396000f3fe60806040526004361061006d576000357c0100000000000000000000000000000000000000000000000000000000900463ffffffff168063109e94cf1461016a57806382faef25146101c1578063c870554414610218578063d5f3948814610243578063e239aa041461029a575b3373ffffffffffffffffffffffffffffffffffffffff16600160009054906101000a900473ffffffffffffffffffffffffffffffffffffffff1673ffffffffffffffffffffffffffffffffffffffff16141515610158576040517f08c379a00000000000000000000000000000000000000000000000000000000081526004018080602001828103825260288152602001807f4f6e6c792074686520636c69656e742069732061626c6520746f206465706f7381526020017f6974206d6f6e657900000000000000000000000000000000000000000000000081525060400191505060405180910390fd5b34600360008282540192505081905550005b34801561017657600080fd5b5061017f6102b1565b604051808273ffffffffffffffffffffffffffffffffffffffff1673ffffffffffffffffffffffffffffffffffffffff16815260200191505060405180910390f35b3480156101cd57600080fd5b506101d66102d7565b604051808273ffffffffffffffffffffffffffffffffffffffff1673ffffffffffffffffffffffffffffffffffffffff16815260200191505060405180910390f35b34801561022457600080fd5b5061022d6102fd565b6040518082815260200191505060405180910390f35b34801561024f57600080fd5b50610258610303565b604051808273ffffffffffffffffffffffffffffffffffffffff1673ffffffffffffffffffffffffffffffffffffffff16815260200191505060405180910390f35b3480156102a657600080fd5b506102af610328565b005b600160009054906101000a900473ffffffffffffffffffffffffffffffffffffffff1681565b600260009054906101000a900473ffffffffffffffffffffffffffffffffffffffff1681565b60035481565b6000809054906101000a900473ffffffffffffffffffffffffffffffffffffffff1681565b3373ffffffffffffffffffffffffffffffffffffffff166000809054906101000a900473ffffffffffffffffffffffffffffffffffffffff1673ffffffffffffffffffffffffffffffffffffffff16141515610412576040517f08c379a000000000000000000000000000000000000000000000000000000000815260040180806020018281038252602e8152602001807f4f6e6c7920746865206465706c6f79657220697320616c6c6f77656420746f2081526020017f70617920746865207461736b657200000000000000000000000000000000000081525060400191505060405180910390fd5b600260009054906101000a900473ffffffffffffffffffffffffffffffffffffffff1673ffffffffffffffffffffffffffffffffffffffff166108fc6003549081150290604051600060405180830381858888f1935050505015801561047c573d6000803e3d6000fd5b50600060038190555056fea165627a7a723058201789025dbd31b4c3d7e8abc7694cc0c6b8eb43c5cb74d71a7de71efc608643110029",
  "source": "pragma solidity ^0.5.0;\n\ncontract PayStudent\n{\n    address public deployer;\n\n    address public client;\n    address payable public tasker;\n\n    uint256 public payAmount;\n\n    constructor (address _client, address payable _tasker) public\n    {\n        deployer = msg.sender;\n\n        client = _client;\n        tasker = _tasker;\n\n        payAmount = 0;\n    }\n\n    /**\n     * Handle the deposit\n     */\n    function () external payable\n    {\n        // require function should be used to ensure valid conditions,\n        // such as inputs, or contract state variables are me\n        require(client == msg.sender, \"Only the client is able to deposit money\");\n        payAmount += msg.value;\n    }\n\n    /**\n     * Send the payment\n     */\n    function sendPayAmountToTasker() public\n    {\n        require(deployer == msg.sender, \"Only the deployer is allowed to pay the tasker\");\n\n        // transfer pay amount to tasker\n        tasker.transfer(payAmount);\n\n        // nullify pay amount manually once the transfer has been sent\n        payAmount = 0;\n    }\n\n}",
  "sourcePath": "/Users/baptistedebever/code/bdebever/learning/blockchain/solidity/demo/contracts/PayStudent.sol",
  "compiler": {
    "name": "solc",
    "version": "0.5.0+commit.1d4f565a.Emscripten.clang"
  },
  "schemaVersion": "3.0.2",
  "updatedAt": "2019-03-02T14:52:11.719Z",
  "devdoc": {
    "methods": {}
  },
  "userdoc": {
    "methods": {
      "sendPayAmountToTasker()": {
        "notice": "Send the payment"
      }
    }
  }
}